{
  "_format": "hh-sol-artifact-1",
  "contractName": "Crowdfunding_FahadSaleem",
  "sourceName": "contracts/Crowdfunding_FahadSaleem.sol",
  "abi": [
    {
      "inputs": [
        {
          "internalType": "address",
          "name": "_kycRegistryAddress",
          "type": "address"
        }
      ],
      "stateMutability": "nonpayable",
      "type": "constructor"
    },
    {
      "anonymous": false,
      "inputs": [
        {
          "indexed": true,
          "internalType": "uint256",
          "name": "id",
          "type": "uint256"
        },
        {
          "indexed": true,
          "internalType": "address",
          "name": "creator",
          "type": "address"
        },
        {
          "indexed": false,
          "internalType": "string",
          "name": "title",
          "type": "string"
        },
        {
          "indexed": false,
          "internalType": "uint256",
          "name": "goalWei",
          "type": "uint256"
        }
      ],
      "name": "CampaignCreated",
      "type": "event"
    },
    {
      "anonymous": false,
      "inputs": [
        {
          "indexed": true,
          "internalType": "uint256",
          "name": "id",
          "type": "uint256"
        },
        {
          "indexed": true,
          "internalType": "address",
          "name": "contributor",
          "type": "address"
        },
        {
          "indexed": false,
          "internalType": "uint256",
          "name": "amount",
          "type": "uint256"
        }
      ],
      "name": "ContributionMade",
      "type": "event"
    },
    {
      "anonymous": false,
      "inputs": [
        {
          "indexed": true,
          "internalType": "uint256",
          "name": "id",
          "type": "uint256"
        },
        {
          "indexed": true,
          "internalType": "address",
          "name": "creator",
          "type": "address"
        },
        {
          "indexed": false,
          "internalType": "uint256",
          "name": "amount",
          "type": "uint256"
        }
      ],
      "name": "FundsWithdrawn",
      "type": "event"
    },
    {
      "inputs": [
        {
          "internalType": "uint256",
          "name": "",
          "type": "uint256"
        }
      ],
      "name": "campaignIds",
      "outputs": [
        {
          "internalType": "uint256",
          "name": "",
          "type": "uint256"
        }
      ],
      "stateMutability": "view",
      "type": "function"
    },
    {
      "inputs": [
        {
          "internalType": "uint256",
          "name": "",
          "type": "uint256"
        }
      ],
      "name": "campaigns",
      "outputs": [
        {
          "internalType": "uint256",
          "name": "id",
          "type": "uint256"
        },
        {
          "internalType": "address payable",
          "name": "creator",
          "type": "address"
        },
        {
          "internalType": "string",
          "name": "title",
          "type": "string"
        },
        {
          "internalType": "string",
          "name": "description",
          "type": "string"
        },
        {
          "internalType": "uint256",
          "name": "goalWei",
          "type": "uint256"
        },
        {
          "internalType": "uint256",
          "name": "fundsRaised",
          "type": "uint256"
        },
        {
          "internalType": "enum Crowdfunding_FahadSaleem.CampaignStatus",
          "name": "status",
          "type": "uint8"
        },
        {
          "internalType": "uint256",
          "name": "createdAt",
          "type": "uint256"
        }
      ],
      "stateMutability": "view",
      "type": "function"
    },
    {
      "inputs": [
        {
          "internalType": "uint256",
          "name": "_campaignId",
          "type": "uint256"
        }
      ],
      "name": "contribute",
      "outputs": [],
      "stateMutability": "payable",
      "type": "function"
    },
    {
      "inputs": [
        {
          "internalType": "uint256",
          "name": "",
          "type": "uint256"
        },
        {
          "internalType": "address",
          "name": "",
          "type": "address"
        }
      ],
      "name": "contributions",
      "outputs": [
        {
          "internalType": "uint256",
          "name": "",
          "type": "uint256"
        }
      ],
      "stateMutability": "view",
      "type": "function"
    },
    {
      "inputs": [
        {
          "internalType": "string",
          "name": "_title",
          "type": "string"
        },
        {
          "internalType": "string",
          "name": "_description",
          "type": "string"
        },
        {
          "internalType": "uint256",
          "name": "_goalWei",
          "type": "uint256"
        }
      ],
      "name": "createCampaign",
      "outputs": [
        {
          "internalType": "uint256",
          "name": "",
          "type": "uint256"
        }
      ],
      "stateMutability": "nonpayable",
      "type": "function"
    },
    {
      "inputs": [
        {
          "internalType": "uint256",
          "name": "_campaignId",
          "type": "uint256"
        }
      ],
      "name": "getCampaign",
      "outputs": [
        {
          "internalType": "uint256",
          "name": "id",
          "type": "uint256"
        },
        {
          "internalType": "address",
          "name": "creator",
          "type": "address"
        },
        {
          "internalType": "string",
          "name": "title",
          "type": "string"
        },
        {
          "internalType": "string",
          "name": "description",
          "type": "string"
        },
        {
          "internalType": "uint256",
          "name": "goalWei",
          "type": "uint256"
        },
        {
          "internalType": "uint256",
          "name": "fundsRaised",
          "type": "uint256"
        },
        {
          "internalType": "enum Crowdfunding_FahadSaleem.CampaignStatus",
          "name": "status",
          "type": "uint8"
        },
        {
          "internalType": "uint256",
          "name": "createdAt",
          "type": "uint256"
        }
      ],
      "stateMutability": "view",
      "type": "function"
    },
    {
      "inputs": [],
      "name": "getCampaignCount",
      "outputs": [
        {
          "internalType": "uint256",
          "name": "",
          "type": "uint256"
        }
      ],
      "stateMutability": "view",
      "type": "function"
    },
    {
      "inputs": [],
      "name": "getCampaignIds",
      "outputs": [
        {
          "internalType": "uint256[]",
          "name": "",
          "type": "uint256[]"
        }
      ],
      "stateMutability": "view",
      "type": "function"
    },
    {
      "inputs": [],
      "name": "kycRegistry",
      "outputs": [
        {
          "internalType": "contract KYCRegistry_FahadSaleem",
          "name": "",
          "type": "address"
        }
      ],
      "stateMutability": "view",
      "type": "function"
    },
    {
      "inputs": [],
      "name": "nextCampaignId",
      "outputs": [
        {
          "internalType": "uint256",
          "name": "",
          "type": "uint256"
        }
      ],
      "stateMutability": "view",
      "type": "function"
    },
    {
      "inputs": [],
      "name": "owner",
      "outputs": [
        {
          "internalType": "address",
          "name": "",
          "type": "address"
        }
      ],
      "stateMutability": "view",
      "type": "function"
    },
    {
      "inputs": [
        {
          "internalType": "address",
          "name": "_newRegistry",
          "type": "address"
        }
      ],
      "name": "setKYCRegistry",
      "outputs": [],
      "stateMutability": "nonpayable",
      "type": "function"
    },
    {
      "inputs": [
        {
          "internalType": "uint256",
          "name": "_campaignId",
          "type": "uint256"
        }
      ],
      "name": "withdraw",
      "outputs": [],
      "stateMutability": "nonpayable",
      "type": "function"
    },
    {
      "stateMutability": "payable",
      "type": "receive"
    }
  ],
  "bytecode": "0x608060405234801561001057600080fd5b5060405161256d38038061256d8339818101604052810190610032919061013f565b336000806101000a81548173ffffffffffffffffffffffffffffffffffffffff021916908373ffffffffffffffffffffffffffffffffffffffff16021790555080600160006101000a81548173ffffffffffffffffffffffffffffffffffffffff021916908373ffffffffffffffffffffffffffffffffffffffff16021790555060016002819055506000600660006101000a81548160ff0219169083151502179055505061016c565b600080fd5b600073ffffffffffffffffffffffffffffffffffffffff82169050919050565b600061010c826100e1565b9050919050565b61011c81610101565b811461012757600080fd5b50565b60008151905061013981610113565b92915050565b600060208284031215610155576101546100dc565b5b60006101638482850161012a565b91505092915050565b6123f28061017b6000396000f3fe6080604052600436106100c65760003560e01c8063600d2dbc1161007f5780638da5cb5b116100595780638da5cb5b14610295578063b369359d146102c0578063c1cbbca7146102fd578063ffa56a5714610319576100cd565b8063600d2dbc146102165780636caa92181461023f5780637903a7561461026a576100cd565b8063141961bc146100d25780632e1a7d4d146101165780633d891f591461013f57806347c9e8f61461017c5780634b155b97146101a75780635598f8cc146101d2576100cd565b366100cd57005b600080fd5b3480156100de57600080fd5b506100f960048036038101906100f491906113d6565b610356565b60405161010d98979695949392919061155a565b60405180910390f35b34801561012257600080fd5b5061013d600480360381019061013891906113d6565b6104db565b005b34801561014b57600080fd5b5061016660048036038101906101619190611624565b610895565b6040516101739190611664565b60405180910390f35b34801561018857600080fd5b506101916108ba565b60405161019e919061173d565b60405180910390f35b3480156101b357600080fd5b506101bc610912565b6040516101c991906117be565b60405180910390f35b3480156101de57600080fd5b506101f960048036038101906101f491906113d6565b610938565b60405161020d9897969594939291906117e8565b60405180910390f35b34801561022257600080fd5b5061023d60048036038101906102389190611874565b610b29565b005b34801561024b57600080fd5b50610254610c6a565b6040516102619190611664565b60405180910390f35b34801561027657600080fd5b5061027f610c77565b60405161028c9190611664565b60405180910390f35b3480156102a157600080fd5b506102aa610c7d565b6040516102b791906118a1565b60405180910390f35b3480156102cc57600080fd5b506102e760048036038101906102e291906113d6565b610ca1565b6040516102f49190611664565b60405180910390f35b610317600480360381019061031291906113d6565b610cc5565b005b34801561032557600080fd5b50610340600480360381019061033b9190611921565b610ef0565b60405161034d9190611664565b60405180910390f35b60036020528060005260406000206000915090508060000154908060010160009054906101000a900473ffffffffffffffffffffffffffffffffffffffff16908060020180546103a5906119e5565b80601f01602080910402602001604051908101604052809291908181526020018280546103d1906119e5565b801561041e5780601f106103f35761010080835404028352916020019161041e565b820191906000526020600020905b81548152906001019060200180831161040157829003601f168201915b505050505090806003018054610433906119e5565b80601f016020809104026020016040519081016040528092919081815260200182805461045f906119e5565b80156104ac5780601f10610481576101008083540402835291602001916104ac565b820191906000526020600020905b81548152906001019060200180831161048f57829003601f168201915b5050505050908060040154908060050154908060060160009054906101000a900460ff16908060070154905088565b600660009054906101000a900460ff161561052b576040517f08c379a000000000000000000000000000000000000000000000000000000000815260040161052290611a62565b60405180910390fd5b6001600660006101000a81548160ff021916908315150217905550600060036000838152602001908152602001600020905060008160000154036105a4576040517f08c379a000000000000000000000000000000000000000000000000000000000815260040161059b90611ace565b60405180910390fd5b3373ffffffffffffffffffffffffffffffffffffffff168160010160009054906101000a900473ffffffffffffffffffffffffffffffffffffffff1673ffffffffffffffffffffffffffffffffffffffff1614610636576040517f08c379a000000000000000000000000000000000000000000000000000000000815260040161062d90611b3a565b60405180910390fd5b6001600281111561064a576106496114e3565b5b8160060160009054906101000a900460ff16600281111561066e5761066d6114e3565b5b146106ae576040517f08c379a00000000000000000000000000000000000000000000000000000000081526004016106a590611bcc565b60405180910390fd5b600081600501549050600081116106fa576040517f08c379a00000000000000000000000000000000000000000000000000000000081526004016106f190611c38565b60405180910390fd5b6000826005018190555060028260060160006101000a81548160ff0219169083600281111561072c5761072b6114e3565b5b021790555060008260010160009054906101000a900473ffffffffffffffffffffffffffffffffffffffff1673ffffffffffffffffffffffffffffffffffffffff168260405161077b90611c89565b60006040518083038185875af1925050503d80600081146107b8576040519150601f19603f3d011682016040523d82523d6000602084013e6107bd565b606091505b5050905080610801576040517f08c379a00000000000000000000000000000000000000000000000000000000081526004016107f890611cea565b60405180910390fd5b8260010160009054906101000a900473ffffffffffffffffffffffffffffffffffffffff1673ffffffffffffffffffffffffffffffffffffffff16847ff440aec6b52895984d061d622e6edeba6210f7c3e059be920663140c084560d78460405161086c9190611664565b60405180910390a35050506000600660006101000a81548160ff02191690831515021790555050565b6004602052816000526040600020602052806000526040600020600091509150505481565b6060600580548060200260200160405190810160405280929190818152602001828054801561090857602002820191906000526020600020905b8154815260200190600101908083116108f4575b5050505050905090565b600160009054906101000a900473ffffffffffffffffffffffffffffffffffffffff1681565b6000806060806000806000806000600360008b8152602001908152602001600020905060008160000154036109a2576040517f08c379a000000000000000000000000000000000000000000000000000000000815260040161099990611ace565b60405180910390fd5b80600001548160010160009054906101000a900473ffffffffffffffffffffffffffffffffffffffff168260020183600301846004015485600501548660060160009054906101000a900460ff168760070154858054610a01906119e5565b80601f0160208091040260200160405190810160405280929190818152602001828054610a2d906119e5565b8015610a7a5780601f10610a4f57610100808354040283529160200191610a7a565b820191906000526020600020905b815481529060010190602001808311610a5d57829003601f168201915b50505050509550848054610a8d906119e5565b80601f0160208091040260200160405190810160405280929190818152602001828054610ab9906119e5565b8015610b065780601f10610adb57610100808354040283529160200191610b06565b820191906000526020600020905b815481529060010190602001808311610ae957829003601f168201915b505050505094509850985098509850985098509850985050919395975091939597565b60008054906101000a900473ffffffffffffffffffffffffffffffffffffffff1673ffffffffffffffffffffffffffffffffffffffff163373ffffffffffffffffffffffffffffffffffffffff1614610bb7576040517f08c379a0000000000000000000000000000000000000000000000000000000008152600401610bae90611d56565b60405180910390fd5b600073ffffffffffffffffffffffffffffffffffffffff168173ffffffffffffffffffffffffffffffffffffffff1603610c26576040517f08c379a0000000000000000000000000000000000000000000000000000000008152600401610c1d90611dc2565b60405180910390fd5b80600160006101000a81548173ffffffffffffffffffffffffffffffffffffffff021916908373ffffffffffffffffffffffffffffffffffffffff16021790555050565b6000600580549050905090565b60025481565b60008054906101000a900473ffffffffffffffffffffffffffffffffffffffff1681565b60058181548110610cb157600080fd5b906000526020600020016000915090505481565b60006003600083815260200190815260200160002090506000816000015403610d23576040517f08c379a0000000000000000000000000000000000000000000000000000000008152600401610d1a90611ace565b60405180910390fd5b60006002811115610d3757610d366114e3565b5b8160060160009054906101000a900460ff166002811115610d5b57610d5a6114e3565b5b14610d9b576040517f08c379a0000000000000000000000000000000000000000000000000000000008152600401610d9290611e2e565b60405180910390fd5b60003411610dde576040517f08c379a0000000000000000000000000000000000000000000000000000000008152600401610dd590611e9a565b60405180910390fd5b34816005016000828254610df29190611ee9565b92505081905550346004600084815260200190815260200160002060003373ffffffffffffffffffffffffffffffffffffffff1673ffffffffffffffffffffffffffffffffffffffff1681526020019081526020016000206000828254610e599190611ee9565b925050819055503373ffffffffffffffffffffffffffffffffffffffff16827f0a4a91237423e0a1766a761c7cb029311d8b95d6b1b81db1b949a70c98b4e08e34604051610ea79190611664565b60405180910390a38060040154816005015410610eec5760018160060160006101000a81548160ff02191690836002811115610ee657610ee56114e3565b5b02179055505b5050565b60008060009054906101000a900473ffffffffffffffffffffffffffffffffffffffff1673ffffffffffffffffffffffffffffffffffffffff163373ffffffffffffffffffffffffffffffffffffffff16036110fe5760008211610f89576040517f08c379a0000000000000000000000000000000000000000000000000000000008152600401610f8090611f69565b60405180910390fd5b600060026000815480929190610f9e90611f89565b9190505590506000600360008381526020019081526020016000209050818160000181905550338160010160006101000a81548173ffffffffffffffffffffffffffffffffffffffff021916908373ffffffffffffffffffffffffffffffffffffffff160217905550878782600201918261101a9291906121ad565b50858582600301918261102e9291906121ad565b508381600401819055506000816005018190555060008160060160006101000a81548160ff0219169083600281111561106a576110696114e3565b5b021790555042816007018190555060058290806001815401808255809150506001900390600052602060002001600090919091909150553373ffffffffffffffffffffffffffffffffffffffff16827f825fb10f7650ed27414d6f86acdf7d5946927d9b25001f045f1a2435deec02fe8a8a886040516110ec939291906122b9565b60405180910390a3819250505061138d565b600160009054906101000a900473ffffffffffffffffffffffffffffffffffffffff1673ffffffffffffffffffffffffffffffffffffffff1663673448dd336040518263ffffffff1660e01b815260040161115991906118a1565b602060405180830381865afa158015611176573d6000803e3d6000fd5b505050506040513d601f19601f8201168201806040525081019061119a9190612323565b6111d9576040517f08c379a00000000000000000000000000000000000000000000000000000000081526004016111d09061239c565b60405180910390fd5b6000821161121c576040517f08c379a000000000000000000000000000000000000000000000000000000000815260040161121390611f69565b60405180910390fd5b60006002600081548092919061123190611f89565b9190505590506000600360008381526020019081526020016000209050818160000181905550338160010160006101000a81548173ffffffffffffffffffffffffffffffffffffffff021916908373ffffffffffffffffffffffffffffffffffffffff16021790555087878260020191826112ad9291906121ad565b5085858260030191826112c19291906121ad565b508381600401819055506000816005018190555060008160060160006101000a81548160ff021916908360028111156112fd576112fc6114e3565b5b021790555042816007018190555060058290806001815401808255809150506001900390600052602060002001600090919091909150553373ffffffffffffffffffffffffffffffffffffffff16827f825fb10f7650ed27414d6f86acdf7d5946927d9b25001f045f1a2435deec02fe8a8a8860405161137f939291906122b9565b60405180910390a381925050505b95945050505050565b600080fd5b600080fd5b6000819050919050565b6113b3816113a0565b81146113be57600080fd5b50565b6000813590506113d0816113aa565b92915050565b6000602082840312156113ec576113eb611396565b5b60006113fa848285016113c1565b91505092915050565b61140c816113a0565b82525050565b600073ffffffffffffffffffffffffffffffffffffffff82169050919050565b600061143d82611412565b9050919050565b61144d81611432565b82525050565b600081519050919050565b600082825260208201905092915050565b60005b8381101561148d578082015181840152602081019050611472565b60008484015250505050565b6000601f19601f8301169050919050565b60006114b582611453565b6114bf818561145e565b93506114cf81856020860161146f565b6114d881611499565b840191505092915050565b7f4e487b7100000000000000000000000000000000000000000000000000000000600052602160045260246000fd5b60038110611523576115226114e3565b5b50565b600081905061153482611512565b919050565b600061154482611526565b9050919050565b61155481611539565b82525050565b600061010082019050611570600083018b611403565b61157d602083018a611444565b818103604083015261158f81896114aa565b905081810360608301526115a381886114aa565b90506115b26080830187611403565b6115bf60a0830186611403565b6115cc60c083018561154b565b6115d960e0830184611403565b9998505050505050505050565b60006115f182611412565b9050919050565b611601816115e6565b811461160c57600080fd5b50565b60008135905061161e816115f8565b92915050565b6000806040838503121561163b5761163a611396565b5b6000611649858286016113c1565b925050602061165a8582860161160f565b9150509250929050565b60006020820190506116796000830184611403565b92915050565b600081519050919050565b600082825260208201905092915050565b6000819050602082019050919050565b6116b4816113a0565b82525050565b60006116c683836116ab565b60208301905092915050565b6000602082019050919050565b60006116ea8261167f565b6116f4818561168a565b93506116ff8361169b565b8060005b8381101561173057815161171788826116ba565b9750611722836116d2565b925050600181019050611703565b5085935050505092915050565b6000602082019050818103600083015261175781846116df565b905092915050565b6000819050919050565b600061178461177f61177a84611412565b61175f565b611412565b9050919050565b600061179682611769565b9050919050565b60006117a88261178b565b9050919050565b6117b88161179d565b82525050565b60006020820190506117d360008301846117af565b92915050565b6117e2816115e6565b82525050565b6000610100820190506117fe600083018b611403565b61180b602083018a6117d9565b818103604083015261181d81896114aa565b9050818103606083015261183181886114aa565b90506118406080830187611403565b61184d60a0830186611403565b61185a60c083018561154b565b61186760e0830184611403565b9998505050505050505050565b60006020828403121561188a57611889611396565b5b60006118988482850161160f565b91505092915050565b60006020820190506118b660008301846117d9565b92915050565b600080fd5b600080fd5b600080fd5b60008083601f8401126118e1576118e06118bc565b5b8235905067ffffffffffffffff8111156118fe576118fd6118c1565b5b60208301915083600182028301111561191a576119196118c6565b5b9250929050565b60008060008060006060868803121561193d5761193c611396565b5b600086013567ffffffffffffffff81111561195b5761195a61139b565b5b611967888289016118cb565b9550955050602086013567ffffffffffffffff81111561198a5761198961139b565b5b611996888289016118cb565b935093505060406119a9888289016113c1565b9150509295509295909350565b7f4e487b7100000000000000000000000000000000000000000000000000000000600052602260045260246000fd5b600060028204905060018216806119fd57607f821691505b602082108103611a1057611a0f6119b6565b5b50919050565b7f5265656e7472616e742063616c6c000000000000000000000000000000000000600082015250565b6000611a4c600e8361145e565b9150611a5782611a16565b602082019050919050565b60006020820190508181036000830152611a7b81611a3f565b9050919050565b7f496e76616c69642063616d706169676e00000000000000000000000000000000600082015250565b6000611ab860108361145e565b9150611ac382611a82565b602082019050919050565b60006020820190508181036000830152611ae781611aab565b9050919050565b7f4f6e6c792063726561746f720000000000000000000000000000000000000000600082015250565b6000611b24600c8361145e565b9150611b2f82611aee565b602082019050919050565b60006020820190508181036000830152611b5381611b17565b9050919050565b7f4e6f7420636f6d706c65746564206f7220616c7265616479207769746864726160008201527f776e000000000000000000000000000000000000000000000000000000000000602082015250565b6000611bb660228361145e565b9150611bc182611b5a565b604082019050919050565b60006020820190508181036000830152611be581611ba9565b9050919050565b7f4e6f2066756e6473000000000000000000000000000000000000000000000000600082015250565b6000611c2260088361145e565b9150611c2d82611bec565b602082019050919050565b60006020820190508181036000830152611c5181611c15565b9050919050565b600081905092915050565b50565b6000611c73600083611c58565b9150611c7e82611c63565b600082019050919050565b6000611c9482611c66565b9150819050919050565b7f5472616e73666572206661696c65640000000000000000000000000000000000600082015250565b6000611cd4600f8361145e565b9150611cdf82611c9e565b602082019050919050565b60006020820190508181036000830152611d0381611cc7565b9050919050565b7f4f6e6c79206f776e657200000000000000000000000000000000000000000000600082015250565b6000611d40600a8361145e565b9150611d4b82611d0a565b602082019050919050565b60006020820190508181036000830152611d6f81611d33565b9050919050565b7f5a65726f20616464726573730000000000000000000000000000000000000000600082015250565b6000611dac600c8361145e565b9150611db782611d76565b602082019050919050565b60006020820190508181036000830152611ddb81611d9f565b9050919050565b7f43616d706169676e206e6f742061637469766500000000000000000000000000600082015250565b6000611e1860138361145e565b9150611e2382611de2565b602082019050919050565b60006020820190508181036000830152611e4781611e0b565b9050919050565b7f4e6f204554482073656e74000000000000000000000000000000000000000000600082015250565b6000611e84600b8361145e565b9150611e8f82611e4e565b602082019050919050565b60006020820190508181036000830152611eb381611e77565b9050919050565b7f4e487b7100000000000000000000000000000000000000000000000000000000600052601160045260246000fd5b6000611ef4826113a0565b9150611eff836113a0565b9250828201905080821115611f1757611f16611eba565b5b92915050565b7f476f616c206d757374206265203e203000000000000000000000000000000000600082015250565b6000611f5360108361145e565b9150611f5e82611f1d565b602082019050919050565b60006020820190508181036000830152611f8281611f46565b9050919050565b6000611f94826113a0565b91507fffffffffffffffffffffffffffffffffffffffffffffffffffffffffffffffff8203611fc657611fc5611eba565b5b600182019050919050565b600082905092915050565b7f4e487b7100000000000000000000000000000000000000000000000000000000600052604160045260246000fd5b60008190508160005260206000209050919050565b60006020601f8301049050919050565b600082821b905092915050565b60006008830261206d7fffffffffffffffffffffffffffffffffffffffffffffffffffffffffffffffff82612030565b6120778683612030565b95508019841693508086168417925050509392505050565b60006120aa6120a56120a0846113a0565b61175f565b6113a0565b9050919050565b6000819050919050565b6120c48361208f565b6120d86120d0826120b1565b84845461203d565b825550505050565b600090565b6120ed6120e0565b6120f88184846120bb565b505050565b5b8181101561211c576121116000826120e5565b6001810190506120fe565b5050565b601f821115612161576121328161200b565b61213b84612020565b8101602085101561214a578190505b61215e61215685612020565b8301826120fd565b50505b505050565b600082821c905092915050565b600061218460001984600802612166565b1980831691505092915050565b600061219d8383612173565b9150826002028217905092915050565b6121b78383611fd1565b67ffffffffffffffff8111156121d0576121cf611fdc565b5b6121da82546119e5565b6121e5828285612120565b6000601f8311600181146122145760008415612202578287013590505b61220c8582612191565b865550612274565b601f1984166122228661200b565b60005b8281101561224a57848901358255600182019150602085019450602081019050612225565b868310156122675784890135612263601f891682612173565b8355505b6001600288020188555050505b50505050505050565b82818337600083830152505050565b6000612298838561145e565b93506122a583858461227d565b6122ae83611499565b840190509392505050565b600060408201905081810360008301526122d481858761228c565b90506122e36020830184611403565b949350505050565b60008115159050919050565b612300816122eb565b811461230b57600080fd5b50565b60008151905061231d816122f7565b92915050565b60006020828403121561233957612338611396565b5b60006123478482850161230e565b91505092915050565b7f4e6f74204b594320617070726f76656400000000000000000000000000000000600082015250565b600061238660108361145e565b915061239182612350565b602082019050919050565b600060208201905081810360008301526123b581612379565b905091905056fea26469706673582212206b3f1a531a18ca1293a2ab7275a0e6b98ebdc1e431420adc8f382d66114312ed64736f6c634300081c0033",
  "linkReferences": {},
  "deployedLinkReferences": {}
}