{
  "_format": "hh-sol-artifact-1",
  "contractName": "KYCRegistry_FahadSaleem",
  "sourceName": "contracts/KYCRegistry_FahadSaleem.sol",
  "abi": [
    {
      "inputs": [],
      "stateMutability": "nonpayable",
      "type": "constructor"
    },
    {
      "anonymous": false,
      "inputs": [
        {
          "indexed": true,
          "internalType": "address",
          "name": "user",
          "type": "address"
        }
      ],
      "name": "KYCApproved",
      "type": "event"
    },
    {
      "anonymous": false,
      "inputs": [
        {
          "indexed": true,
          "internalType": "address",
          "name": "user",
          "type": "address"
        }
      ],
      "name": "KYCRejected",
      "type": "event"
    },
    {
      "anonymous": false,
      "inputs": [
        {
          "indexed": true,
          "internalType": "address",
          "name": "user",
          "type": "address"
        },
        {
          "indexed": false,
          "internalType": "string",
          "name": "name",
          "type": "string"
        },
        {
          "indexed": false,
          "internalType": "string",
          "name": "cnic",
          "type": "string"
        }
      ],
      "name": "KYCSubmitted",
      "type": "event"
    },
    {
      "inputs": [
        {
          "internalType": "address",
          "name": "_user",
          "type": "address"
        }
      ],
      "name": "approveKYC",
      "outputs": [],
      "stateMutability": "nonpayable",
      "type": "function"
    },
    {
      "inputs": [
        {
          "internalType": "address",
          "name": "",
          "type": "address"
        }
      ],
      "name": "approvedUsers",
      "outputs": [
        {
          "internalType": "bool",
          "name": "",
          "type": "bool"
        }
      ],
      "stateMutability": "view",
      "type": "function"
    },
    {
      "inputs": [
        {
          "internalType": "address",
          "name": "_user",
          "type": "address"
        }
      ],
      "name": "isApproved",
      "outputs": [
        {
          "internalType": "bool",
          "name": "",
          "type": "bool"
        }
      ],
      "stateMutability": "view",
      "type": "function"
    },
    {
      "inputs": [
        {
          "internalType": "address",
          "name": "",
          "type": "address"
        }
      ],
      "name": "kycRequests",
      "outputs": [
        {
          "internalType": "string",
          "name": "name",
          "type": "string"
        },
        {
          "internalType": "string",
          "name": "cnic",
          "type": "string"
        },
        {
          "internalType": "enum KYCRegistry_FahadSaleem.Status",
          "name": "status",
          "type": "uint8"
        }
      ],
      "stateMutability": "view",
      "type": "function"
    },
    {
      "inputs": [],
      "name": "owner",
      "outputs": [
        {
          "internalType": "address",
          "name": "",
          "type": "address"
        }
      ],
      "stateMutability": "view",
      "type": "function"
    },
    {
      "inputs": [
        {
          "internalType": "address",
          "name": "_user",
          "type": "address"
        }
      ],
      "name": "rejectKYC",
      "outputs": [],
      "stateMutability": "nonpayable",
      "type": "function"
    },
    {
      "inputs": [
        {
          "internalType": "string",
          "name": "_name",
          "type": "string"
        },
        {
          "internalType": "string",
          "name": "_cnic",
          "type": "string"
        }
      ],
      "name": "submitKYCRequest",
      "outputs": [],
      "stateMutability": "nonpayable",
      "type": "function"
    }
  ],
  "bytecode": "0x6080604052348015600f57600080fd5b50336000806101000a81548173ffffffffffffffffffffffffffffffffffffffff021916908373ffffffffffffffffffffffffffffffffffffffff1602179055506113858061005f6000396000f3fe608060405234801561001057600080fd5b506004361061007d5760003560e01c8063673448dd1161005b578063673448dd146100ec578063893cd3be1461011c5780638da5cb5b1461014c578063c42e58881461016a5761007d565b806306a01781146100825780630e27324d1461009e57806319171561146100ba575b600080fd5b61009c60048036038101906100979190610aed565b610186565b005b6100b860048036038101906100b39190610bcc565b6104cb565b005b6100d460048036038101906100cf9190610bcc565b6106e0565b6040516100e393929190610d00565b60405180910390f35b61010660048036038101906101019190610bcc565b610827565b6040516101139190610d60565b60405180910390f35b61013660048036038101906101319190610bcc565b61087d565b6040516101439190610d60565b60405180910390f35b61015461089d565b6040516101619190610d8a565b60405180910390f35b610184600480360381019061017f9190610bcc565b6108c1565b005b600084849050116101cc576040517f08c379a00000000000000000000000000000000000000000000000000000000081526004016101c390610df1565b60405180910390fd5b60008282905011610212576040517f08c379a000000000000000000000000000000000000000000000000000000000815260040161020990610e5d565b60405180910390fd5b6000600281111561022657610225610c89565b5b600160003373ffffffffffffffffffffffffffffffffffffffff1673ffffffffffffffffffffffffffffffffffffffff16815260200190815260200160002060020160009054906101000a900460ff16600281111561028857610287610c89565b5b14806102de5750600260003373ffffffffffffffffffffffffffffffffffffffff1673ffffffffffffffffffffffffffffffffffffffff16815260200190815260200160002060009054906101000a900460ff16155b61031d576040517f08c379a000000000000000000000000000000000000000000000000000000000815260040161031490610ec9565b60405180910390fd5b604051806060016040528085858080601f016020809104026020016040519081016040528093929190818152602001838380828437600081840152601f19601f82011690508083019250505050505050815260200183838080601f016020809104026020016040519081016040528093929190818152602001838380828437600081840152601f19601f820116905080830192505050505050508152602001600060028111156103d0576103cf610c89565b5b815250600160003373ffffffffffffffffffffffffffffffffffffffff1673ffffffffffffffffffffffffffffffffffffffff1681526020019081526020016000206000820151816000019081610427919061112e565b50602082015181600101908161043d919061112e565b5060408201518160020160006101000a81548160ff0219169083600281111561046957610468610c89565b5b02179055509050503373ffffffffffffffffffffffffffffffffffffffff167f74aeb3a73c6cebe2ddfb681c384e0117cc8dd5e93900b3b1507dee33c2603841858585856040516104bd949392919061123c565b60405180910390a250505050565b60008054906101000a900473ffffffffffffffffffffffffffffffffffffffff1673ffffffffffffffffffffffffffffffffffffffff163373ffffffffffffffffffffffffffffffffffffffff1614610559576040517f08c379a0000000000000000000000000000000000000000000000000000000008152600401610550906112c3565b60405180910390fd5b6000600160008373ffffffffffffffffffffffffffffffffffffffff1673ffffffffffffffffffffffffffffffffffffffff1681526020019081526020016000209050600060028111156105b0576105af610c89565b5b8160020160009054906101000a900460ff1660028111156105d4576105d3610c89565b5b14610614576040517f08c379a000000000000000000000000000000000000000000000000000000000815260040161060b9061132f565b60405180910390fd5b60018160020160006101000a81548160ff0219169083600281111561063c5761063b610c89565b5b02179055506001600260008473ffffffffffffffffffffffffffffffffffffffff1673ffffffffffffffffffffffffffffffffffffffff16815260200190815260200160002060006101000a81548160ff0219169083151502179055508173ffffffffffffffffffffffffffffffffffffffff167f333bb19eeef0621b32888db778cc7a481a89fc1d59adb2cecb59b40ef048941e60405160405180910390a25050565b600160205280600052604060002060009150905080600001805461070390610f47565b80601f016020809104026020016040519081016040528092919081815260200182805461072f90610f47565b801561077c5780601f106107515761010080835404028352916020019161077c565b820191906000526020600020905b81548152906001019060200180831161075f57829003601f168201915b50505050509080600101805461079190610f47565b80601f01602080910402602001604051908101604052809291908181526020018280546107bd90610f47565b801561080a5780601f106107df5761010080835404028352916020019161080a565b820191906000526020600020905b8154815290600101906020018083116107ed57829003601f168201915b5050505050908060020160009054906101000a900460ff16905083565b6000600260008373ffffffffffffffffffffffffffffffffffffffff1673ffffffffffffffffffffffffffffffffffffffff16815260200190815260200160002060009054906101000a900460ff169050919050565b60026020528060005260406000206000915054906101000a900460ff1681565b60008054906101000a900473ffffffffffffffffffffffffffffffffffffffff1681565b60008054906101000a900473ffffffffffffffffffffffffffffffffffffffff1673ffffffffffffffffffffffffffffffffffffffff163373ffffffffffffffffffffffffffffffffffffffff161461094f576040517f08c379a0000000000000000000000000000000000000000000000000000000008152600401610946906112c3565b60405180910390fd5b6000600160008373ffffffffffffffffffffffffffffffffffffffff1673ffffffffffffffffffffffffffffffffffffffff1681526020019081526020016000209050600060028111156109a6576109a5610c89565b5b8160020160009054906101000a900460ff1660028111156109ca576109c9610c89565b5b14610a0a576040517f08c379a0000000000000000000000000000000000000000000000000000000008152600401610a019061132f565b60405180910390fd5b60028160020160006101000a81548160ff02191690836002811115610a3257610a31610c89565b5b02179055508173ffffffffffffffffffffffffffffffffffffffff167fa34e10975b6442017fb6ca6ba35e6d671924c59f52737e20ef2362a5ca2c275160405160405180910390a25050565b600080fd5b600080fd5b600080fd5b600080fd5b600080fd5b60008083601f840112610aad57610aac610a88565b5b8235905067ffffffffffffffff811115610aca57610ac9610a8d565b5b602083019150836001820283011115610ae657610ae5610a92565b5b9250929050565b60008060008060408587031215610b0757610b06610a7e565b5b600085013567ffffffffffffffff811115610b2557610b24610a83565b5b610b3187828801610a97565b9450945050602085013567ffffffffffffffff811115610b5457610b53610a83565b5b610b6087828801610a97565b925092505092959194509250565b600073ffffffffffffffffffffffffffffffffffffffff82169050919050565b6000610b9982610b6e565b9050919050565b610ba981610b8e565b8114610bb457600080fd5b50565b600081359050610bc681610ba0565b92915050565b600060208284031215610be257610be1610a7e565b5b6000610bf084828501610bb7565b91505092915050565b600081519050919050565b600082825260208201905092915050565b60005b83811015610c33578082015181840152602081019050610c18565b60008484015250505050565b6000601f19601f8301169050919050565b6000610c5b82610bf9565b610c658185610c04565b9350610c75818560208601610c15565b610c7e81610c3f565b840191505092915050565b7f4e487b7100000000000000000000000000000000000000000000000000000000600052602160045260246000fd5b60038110610cc957610cc8610c89565b5b50565b6000819050610cda82610cb8565b919050565b6000610cea82610ccc565b9050919050565b610cfa81610cdf565b82525050565b60006060820190508181036000830152610d1a8186610c50565b90508181036020830152610d2e8185610c50565b9050610d3d6040830184610cf1565b949350505050565b60008115159050919050565b610d5a81610d45565b82525050565b6000602082019050610d756000830184610d51565b92915050565b610d8481610b8e565b82525050565b6000602082019050610d9f6000830184610d7b565b92915050565b7f456d707479206e616d6500000000000000000000000000000000000000000000600082015250565b6000610ddb600a83610c04565b9150610de682610da5565b602082019050919050565b60006020820190508181036000830152610e0a81610dce565b9050919050565b7f456d70747920434e494300000000000000000000000000000000000000000000600082015250565b6000610e47600a83610c04565b9150610e5282610e11565b602082019050919050565b60006020820190508181036000830152610e7681610e3a565b9050919050565b7f416c7265616479207375626d6974746564000000000000000000000000000000600082015250565b6000610eb3601183610c04565b9150610ebe82610e7d565b602082019050919050565b60006020820190508181036000830152610ee281610ea6565b9050919050565b7f4e487b7100000000000000000000000000000000000000000000000000000000600052604160045260246000fd5b7f4e487b7100000000000000000000000000000000000000000000000000000000600052602260045260246000fd5b60006002820490506001821680610f5f57607f821691505b602082108103610f7257610f71610f18565b5b50919050565b60008190508160005260206000209050919050565b60006020601f8301049050919050565b600082821b905092915050565b600060088302610fda7fffffffffffffffffffffffffffffffffffffffffffffffffffffffffffffffff82610f9d565b610fe48683610f9d565b95508019841693508086168417925050509392505050565b6000819050919050565b6000819050919050565b600061102b61102661102184610ffc565b611006565b610ffc565b9050919050565b6000819050919050565b61104583611010565b61105961105182611032565b848454610faa565b825550505050565b600090565b61106e611061565b61107981848461103c565b505050565b5b8181101561109d57611092600082611066565b60018101905061107f565b5050565b601f8211156110e2576110b381610f78565b6110bc84610f8d565b810160208510156110cb578190505b6110df6110d785610f8d565b83018261107e565b50505b505050565b600082821c905092915050565b6000611105600019846008026110e7565b1980831691505092915050565b600061111e83836110f4565b9150826002028217905092915050565b61113782610bf9565b67ffffffffffffffff8111156111505761114f610ee9565b5b61115a8254610f47565b6111658282856110a1565b600060209050601f8311600181146111985760008415611186578287015190505b6111908582611112565b8655506111f8565b601f1984166111a686610f78565b60005b828110156111ce578489015182556001820191506020850194506020810190506111a9565b868310156111eb57848901516111e7601f8916826110f4565b8355505b6001600288020188555050505b505050505050565b82818337600083830152505050565b600061121b8385610c04565b9350611228838584611200565b61123183610c3f565b840190509392505050565b6000604082019050818103600083015261125781868861120f565b9050818103602083015261126c81848661120f565b905095945050505050565b7f4f6e6c79206f776e657200000000000000000000000000000000000000000000600082015250565b60006112ad600a83610c04565b91506112b882611277565b602082019050919050565b600060208201905081810360008301526112dc816112a0565b9050919050565b7f4e6f742070656e64696e67000000000000000000000000000000000000000000600082015250565b6000611319600b83610c04565b9150611324826112e3565b602082019050919050565b600060208201905081810360008301526113488161130c565b905091905056fea2646970667358221220131ac75444965819916f933f02c2372e0d587d0ceffcbdbac3a47444ba0f9a9f64736f6c634300081c0033",
  "linkReferences": {},
  "deployedLinkReferences": {}
}